:0E0000000C944D000C9400000C9400000C9425
:10000E0000000C9400000C9400000C9400000C9462
:10001E0000000C9400000C9400000C9400000C9452
:10002E0000000C9400000C9400000C9400000C9442
:10003E0000000C9400000C9400000C9400000C9432
:10004E0000000C9400001027E80364000A00010071
:10005E00001000011000010052657A6100000000DE
:10006E000000000000000000000052657A610000F0
:10007E0080C001002D4E414E00494E460000020048
:10008E0060027E000100640280000000F894EE27FA
:10009E00ECBBF1E0FBBFEBBFE5BF8DE0A2E0BB2701
:1000AE00ED938A95E9F780E098E0A0E6ED9301974D
:1000BE00E9F7ECE8F0E085919591009761F0A59154
:1000CE00B59105901590BF01F00105900D92019725
:1000DE00E1F7FB01F0CFEFE5EDBFE8E0EEBFC0E6E4
:1000EE00D2E00C947A00619781E1A0E0B0E0E6E600
:1000FE00F0E00E94C001E0E0EABBEBBBE7BBE8BB6F
:10010E00E4BBE5BBE1BBE2BBA0E2BED020E030E049
:10011E002430E0E03E070CF040C00FE010E0021784
:10012E001307C4F1D9010E94780169F4D8010E9425
:10013E00780119F40A93A0E002C00A93A1E063D0FB
:10014E000E947E010CC0D8010E94780119F40A9316
:10015E00A1E002C00A93A0E056D00E947E01022EBA
:10016E00032A81F040E050E0421753075CF44A93B3
:10017E00A0E049D0DE01A40FB51FAC915DD04F5F5A
:10018E005F4FF2CFACE2B1E00E94910149D0015035
:10019E001040C5CF2F5F3F4FBBCF00E010E00131C5
:1001AE00E0E01E0774F43CD00A93A0E02CD0A8E740
:1001BE00B0E057D0A4EFB1E00E9491010F5F1F4F46
:1001CE00EECFA4CFFFCFAA93E2B3EF70AE2FE881AC
:1001DE00E07FEA2BE2BB82E08A95F1F7929A82E009
:1001EE008A95F1F7929882E08A95F1F778C0AA93F2
:1001FE00A881E9DFE881E295E883A881E4DF81E167
:10020E008A95F1F76CC0AA93E881F0E0E05AFD4FB1
:10021E00E081A981AE0FEBDF5980488022960895C8
:10022E00A2E00E948401ACE0E2DFA1E00E94840122
:10023E00E0E04E2E5E2E0895AA93A881AA3011F00A
:10024E00571448F0E0E0EA934394A42DDCDFA88134
:10025E00AA3009F444C05394909AA881C8DF9098AC
:10026E003EC0BA93AA931A93E981FA813196E98333
:10027E00FA833197E4911E2FE03019F0A12FDCDFC5
:10028E00F3CF188123960895AA93E1B3E06FE1BBF3
:10029E008A9A889A899A9298909891987880E8810B
:1002AE00E058E0936202E881E054E0936302A4E137
:1002BE00B0E00E9491010E948A010E948A010E9470
:1002CE008A01A0E280DF81E28A95F1F7A8E28FDF52
:1002DE00A4E08DDFA5E88BDFA6E089DFA1DF219604
:1002EE000895E2E0F0E00E94B20130970895DE0139
:1002FE00A20FB31FAC910C9423010E94FE00A3E049
:10030E00B0E00C949101A0E30E94EA0081E28A958C
:10031E00F1F70895109639F0A8958AEF90E00197BD
:10032E00F1F71197C9F70895F195E195F040089509
:10033E000024112490E1AA0FBB1F001C111C0E1AE1
:10034E001F0A18F40E0E1F1E01C0A1609A9599F790
:10035E00FD01D0010895E894B7FF04C0A095B095B3
:10036E0011966894F7FDE0DFE3DFFD010EF4DCDFAC
:10037E000895AC0FBD1F05900D928A95E1F7089573
:00000001FF
