:0E0000000C9455000C9400000C9400000C941D
:10000E0000000C9400000C9400000C9400000C9462
:10001E0000000C9400000C9400000C9400000C9452
:10002E0000000C9400000C9400000C9400000C9442
:10003E0000000C9400000C9400000C9400000C9432
:10004E0000000C9400001027E80364000A00010071
:10005E00001000011000010030303A30303A3030DC
:10006E0000535441525400253032753A25303275C2
:10007E003A253032752E253032750053544F5000CC
:10008E0080C001002D4E414E00494E460000020038
:10009E0060028E000100640290000000F894EE27CA
:1000AE00ECBBF1E0FBBFEBBFE5BF8DE0A2E0BB27F1
:1000BE00ED938A95E9F780E098E0A0E6ED9301973D
:1000CE00E9F7ECE9F0E085919591009761F0A59143
:1000DE00B59105901590BF01F00105900D92019715
:1000EE00E1F7FB01F0CFEFE5EDBFE8E0EEBFC0E6D4
:1000FE00D2E00C948200A09710E000E030E020E007
:10010E0040E050E0E7E0EABBEBBBE0E0E7BBE8BB7A
:10011E00E4BBE5BBE1BBE2BBA0E2ADD0E4E0EA9319
:10012E00A0E059D0A6E6B0E093D00E943003AFE62F
:10013E00B0E08ED0C8992DC05BD041E050E0E1E038
:10014E00F0E0E417F50729F52F5F243648F020E09C
:10015E003F5F3C3328F030E00F5F0C3308F01F5F39
:10016E00E3E0EA93A0E037D00E943503DE0161D0D0
:10017E000E943003A9E8B0E06BD0C99909C040E0F5
:10018E0050E00E9435030E943003AFE6B0E060D02D
:10019E00D6CFD0CFFFCFAA93E2B3EF70AE2FE881C8
:1001AE00E07FEA2BE2BB82E08A95F1F7929A82E039
:1001BE008A95F1F7929882E08A95F1F787C0AA9313
:1001CE00A881E9DFE881E295E883A881E4DF81E197
:1001DE008A95F1F77BC0AA93E881F0E0E05AFD4FD3
:1001EE00E081A981AE0FEBDF5980488022960895F9
:1001FE00A2E00E945903ACE0E2DFA1E00E945903A5
:10020E00E0E04E2E5E2E0895AA93A881AA3011F03A
:10021E00571448F0E0E0EA934394A42DDCDFA88164
:10022E00AA3009F453C05394909AA881C8DF9098CD
:10023E004DC0BA93AA931A93A981BA81ED91A9835D
:10024E00BA831E2FE03019F0A12FDEDFF5CF10C0DC
:10025E00BA93AA931A93E981FA813196E983FA83C4
:10026E003197E4911E2FE03019F0A12FCDDFF3CF9F
:10027E00188123960895AA93E1B3E06FE1BB8A9AA1
:10028E00889A899A9298909891987880E881E05807
:10029E00E0936202E881E054E0936302A4E1B0E0EF
:1002AE000E9492030E945F030E945F030E945F03FD
:1002BE00A0E271DF81E28A95F1F7A8E280DFA4E087
:1002CE007EDFA5E87CDFA6E07ADF92DF2196089537
:1002DE00BA93AA931A930A93AA81BB8112960E948B
:1002EE00A403309759F1AA81BB8114960E94A403EE
:1002FE008F01309761F00230E0E01E0798F0F801B0
:10030E0031978F01AA81BB811496ED93FC93AA813C
:10031E00BB811296ED91FD913196FE93EE9331973E
:10032E00AC81A083AA81BB810E94A403FF232AF083
:10033E00ED91FD913196FE93EE9306C0AA81BB819D
:10034E00EFEFFFEFED93FC93198108812596089549
:10035E00BA93AA9326970E94B10310E0AC85BD858F
:10036E00E0E0F0E0ED93FC93EA89FB893196EA8BAD
:10037E00FB8B3197E4912E2FE03009F415C1E12F5C
:10038E00E03039F4253211F411E002C00E94660308
:10039E000AC1E130A9F4253219F40E94660302C1A4
:1003AE0012E040E000E02D3211F401E0FCC02B32EF
:1003BE0011F44BE2F8C0203211F440E2F4C002C056
:1003CE00E23039F450E013E0203311F40068EBC052
:1003DE0003C0E33009F0E7C0203310F02A3308F0F1
:1003EE0007C0AAE05A9F502DE22FE0535E0FDBC0EC
:1003FE00E22FE33649F40E946D03E889F989A4815E
:10040E00AA930E947303CEC0E33741F40E946D039A
:10041E000E9479030E9417031E2F0AC0E03761F471
:10042E000E946D030E9479030E9423031E2F086011
:10043E0002600F7730E034C0E43611F0E93611F483
:10044E00046002C0E53731F4E4E5F0E0EE83FF83AB
:10045E0015E00CC0E83511F4086003C0E83709F068
:10046E00A1C0EEE5F0E0EE83FF8314E002FF14C0BE
:10047E000E946D030E948303AB85AA233AF4EA859A
:10048E00FB850E94A003EA87FB874DE2403011F006
:10049E001F5F01C00B7F04C00E946D030E94830387
:1004AE0000FD11C0151778F407FF08C002FF04C045
:1004BE000B7F242F115001C020E301C020E20E94C7
:1004CE0066035150EFCF312F01FF17C03030A1F02E
:1004DE0003FF06C0EE81FF812591EE83FF8305C0E9
:1004EE00AE81BF812D91AE83BF830E9466035030D3
:1004FE0009F051503150EACF4BC020E3EE81FF811D
:10050E000E94A803E887F987EE81FF813296EE8379
:10051E00FF83E885F985AA85BB85AE17BF0750F026
:10052E002F5FA885B985EA85FB85EA1BFB0BEA8759
:10053E00FB87EFCF2A3328F003FF02C0295F01C0EB
:10054E00295D04FD1AC0213320F4A885B9851197C1
:10055E0009F409C0531710F000FF01C013C020E2C8
:10056E0007FF0BC020E3006102FF07C00B7F4A9319
:10057E000E947303503009F051500E9466035030B0
:10058E0009F051503150A885B985129708F0B5CFB2
:10059E0000FF08C0503031F05150E0E2EA930E9463
:1005AE007303F8CF10E0E0CEAC85BD850E94A403A6
:1005BE000E94B80364960895FF92F82E26970E9423
:1005CE00B3030E948B03309719F4EFEFFFEF23C0B4
:1005DE00DE0116960E949C038D010E948B03EE8312
:1005EE00FF83E0E0E887E987DE011A960E949C030C
:1005FE000E94A403FA93EA931A930A93EFE6F1E0AA
:10060E00FA93EA93DE011A96A3DE9F01AE81BF81B3
:10061E00E0E0EC93F9010E94BA032A96FF90089548
:10062E00BA93AA93A991B991EE27FF276D916623EC
:10063E0011F03196FBCF0895BA93AA93AA27BB2740
:10064E00E991F9910590002011F01196FBCFFD0173
:10065E000895E6E0EA93A1E00C94F200FE01FA930D
:10066E00EA93E5E7F0E0FA93EA93E12FFF27662796
:10067E0077270E94AC03E02FFF27662777270E947B
:10068E00AC03E32FFF27662777270E94AC03E22FE8
:10069E00FF27662777270E94AC0380E10E94E302C2
:1006AE00649608950E94E600A3E0B0E00C949203D5
:1006BE00A0E30E94D20081E28A95F1F708952A9371
:1006CE00AD85BE85EF85F88909950895E889F98984
:1006DE003497E88BF98B0895AD85BE85EF85F88943
:1006EE0009950895A889B98914960E94A403EE83EA
:1006FE00FF83AE81BF810895A889B98914960E949F
:10070E00A403EA87FB870895DE011C960E949C03D2
:10071E000E94A4030895109639F0A8958AEF90E0F0
:10072E000197F1F71197C9F708950024AF0DB01D89
:10073E000895F195E195F0400895ED91FC91119792
:10074E0008950590F491E02D08957A936A93FA93A3
:10075E00EA9308955A934A933A932A931A930A93D3
:10076E0008955D814C813B812A811981088108950C
:00000001FF
