:040000000C944E000E
:100004000C9400000C9400000C9400000C9400006C
:100014000C9400000C9400000C9400000C9400005C
:100024000C9400000C9400000C9400000C9400004C
:100034000C9400000C9400000C9400000C9400003C
:100044000C9400000C9400000C9400000C9400002C
:100054001027E80364000A000100001000011000EA
:10006400010052657A61205361627A690025303259
:10007400753A253032753A253032750080C001005A
:100084002D4E414E00494E460000020060028000A1
:100094000100640282000000F894EE27ECBBF1E05A
:1000A400FBBFEBBFE5BF8DE0A2E0BB27ED938A95D4
:1000B400E9F780E098E0A0E6ED930197E9F7EEE830
:1000C400F0E085919591009761F0A591B591059027
:1000D4001590BF01F00105900D920197E1F7FB0126
:1000E400F0CFEFE5EDBFE8E0EEBFC0E6D2E00C9460
:1000F4007B00A09710E000E030E0E0E0EABBE3E042
:10010400EBBBE0E0E7BBE8BBE4BBE5BBE1BBE2BBC8
:10011400A0E2B4D00E942E03A6E6B0E09CD0A0EDED
:10012400B7E00E948D0367D03F5F3C3348F030E076
:100134000F5F0C3328F000E01F5F183108F010E067
:100144000E942E030E9433030E945103C8990FC0DA
:1001540030E00F5F0C3308F000E00E9433030E948C
:100164002E030E945103A8ECB0E00E948D03C999AC
:100174000FC030E01F5F183108F010E00E94330315
:100184000E942E030E945103A8ECB0E00E948D034C
:10019400A8EEB3E00E948D03C7CFFFCFAA93E2B3CA
:1001A400EF70AE2FE881E07FEA2BE2BB82E08A9514
:1001B400F1F7929A82E08A95F1F7929882E08A9513
:1001C400F1F787C0AA93A881E9DFE881E295E88383
:1001D400A881E4DF81E18A95F1F77BC0AA93E881E5
:1001E400F0E0E05AFD4FE081A981AE0FEBDF5980CA
:1001F400488022960895A2E00E945403ACE0E2DF16
:10020400A1E00E945403E0E04E2E5E2E0895AA93CE
:10021400A881AA3011F0571448F0E0E0EA9343941F
:10022400A42DDCDFA881AA3009F453C05394909A1A
:10023400A881C8DF90984DC0BA93AA931A93A98154
:10024400BA81ED91A983BA831E2FE03019F0A12F52
:10025400DEDFF5CF10C0BA93AA931A93E981FA812D
:100264003196E983FA833197E4911E2FE03019F037
:10027400A12FCDDFF3CF188123960895AA93E1B37C
:10028400E06FE1BB8A9A889A899A9298909891989B
:100294007880E881E058E0936202E881E054E093DA
:1002A4006302A4E1B0E00E948D030E945A030E94FD
:1002B4005A030E945A03A0E271DF81E28A95F1F7A2
:1002C400A8E280DFA4E07EDFA5E87CDFA6E07ADF99
:1002D40092DF21960895BA93AA931A930A93AA8156
:1002E400BB8112960E949F03309759F1AA81BB816A
:1002F40014960E949F038F01309761F00230E0E072
:100304001E0798F0F80131978F01AA81BB811496DA
:10031400ED93FC93AA81BB811296ED91FD913196E8
:10032400FE93EE933197AC81A083AA81BB810E9496
:100334009F03FF232AF0ED91FD913196FE93EE93F6
:1003440006C0AA81BB81EFEFFFEFED93FC93198107
:10035400088125960895BA93AA9326970E94AC0320
:1003640010E0AC85BD85E0E0F0E0ED93FC93EA8914
:10037400FB893196EA8BFB8B3197E4912E2FE03089
:1003840009F415C1E12FE03039F4253211F411E0FC
:1003940002C00E9461030AC1E130A9F4253219F4B4
:1003A4000E94610302C112E040E000E02D3211F42A
:1003B40001E0FCC02B3211F44BE2F8C0203211F4FE
:1003C40040E2F4C002C0E23039F450E013E02033DC
:1003D40011F40068EBC003C0E33009F0E7C0203338
:1003E40010F02A3308F007C0AAE05A9F502DE22FDC
:1003F400E0535E0FDBC0E22FE33649F40E9468034A
:10040400E889F989A481AA930E946E03CEC0E337D8
:1004140041F40E9468030E9474030E9415031E2F76
:100424000AC0E03761F40E9468030E9474030E94CA
:1004340021031E2F086002600F7730E034C0E436D9
:1004440011F0E93611F4046002C0E53731F4E4E553
:10045400F0E0EE83FF8315E00CC0E83511F408608A
:1004640003C0E83709F0A1C0EEE5F0E0EE83FF83B6
:1004740014E002FF14C00E9468030E947E03AB854F
:10048400AA233AF4EA85FB850E949B03EA87FB874B
:100494004DE2403011F01F5F01C00B7F04C00E9489
:1004A40068030E947E0300FD11C0151778F407FF4E
:1004B40008C002FF04C00B7F242F115001C020E3A9
:1004C40001C020E20E9461035150EFCF312F01FFA0
:1004D40017C03030A1F003FF06C0EE81FF812591E3
:1004E400EE83FF8305C0AE81BF812D91AE83BF83B0
:1004F4000E946103503009F051503150EACF4BC093
:1005040020E3EE81FF810E94A303E887F987EE814F
:10051400FF813296EE83FF83E885F985AA85BB8542
:10052400AE17BF0750F02F5FA885B985EA85FB8514
:10053400EA1BFB0BEA87FB87EFCF2A3328F003FF84
:1005440002C0295F01C0295D04FD1AC0213320F4D3
:10055400A885B985119709F409C0531710F000FF55
:1005640001C013C020E207FF0BC020E3006102FFBB
:1005740007C00B7F4A930E946E03503009F051501C
:100584000E946103503009F051503150A885B9855B
:10059400129708F0B5CF00FF08C0503031F0515029
:1005A400E0E2EA930E946E03F8CF10E0E0CEAC855F
:1005B400BD850E949F030E94B30364960895FF9231
:1005C400F82E26970E94AE030E948603309719F4F2
:1005D400EFEFFFEF23C0DE0116960E9497038D0113
:1005E4000E948603EE83FF83E0E0E887E987DE016B
:1005F4001A960E9497030E949F03FA93EA931A9310
:100604000A93EDE6F1E0FA93EA93DE011A96A3DE8B
:100614009F01AE81BF81E0E0EC93F9010E94B50334
:100624002A96FF900895BA93AA93A991B991EE27B7
:10063400FF276D91662311F03196FBCF0895BA938D
:10064400AA93AA27BB27E991F9910590002011F0FC
:100654001196FBCFFD010895E5E0EA93A0E00C9428
:10066400F000FE01FA93EA93E1E7F0E0FA93EA93EB
:10067400E12FFF27662777270E94A703E02FFF2794
:10068400662777270E94A703E32FFF27662777278C
:100694000E94A7038CE00E94E10260960895DE01A7
:1006A4000C941E010E94E400A3E0B0E00C948D03BE
:1006B400A0E30E94D00081E28A95F1F708952A937D
:1006C400AD85BE85EF85F88909950895E889F9898E
:1006D4003497E88BF98B0895AD85BE85EF85F8894D
:1006E40009950895A889B98914960E949F03EE83F9
:1006F400FF83AE81BF810895A889B98914960E94A9
:100704009F03EA87FB870895DE011C960E949703E6
:100714000E949F030895109639F0A8958AEF90E0FF
:100724000197F1F71197C9F708950024AF0DB01D93
:100734000895F195E195F0400895ED91FC9111979C
:1007440008950590F491E02D08957A936A93FA93AD
:10075400EA9308955A934A933A932A931A930A93DD
:1007640008955D814C813B812A8119810881089516
:00000001FF
