:080000000C943A000C9400007E
:100008000C9400000C9400000C9400000C94000068
:100018000C9400000C9400000C9400000C94000058
:100028000C9400000C9400000C9400000C94000048
:100038000C9400000C9400000C9400000C94000038
:100048000C9400000C9400000C9400002020205216
:10005800657A61205361627A6920202000003E00A1
:100068005F0080C0020060026A000000F894EE277A
:10007800ECBBF1E0FBBFEBBFE5BF8DE0A2E0BB2727
:10008800ED938A95E9F780E098E0A0E6ED93019773
:10009800E9F7ECE6F0E085919591009761F0A5917C
:1000A800B59105901590BF01F00105900D9201974B
:1000B800E1F7FB01F0CFEFE5EDBFE8E0EEBFC0E60A
:1000C800D2E00C946700619781E1A0E0B0E0E4E53C
:1000D800F0E00E949501E0E0EABBEBBBE7BBE8BBC0
:1000E800E4BBE5BBE1BBE2BBE3BFE2BFECBFEFBDF6
:1000F800EEBDEDBDECBDE7BDE6BDEBBDEABDE9BDBE
:10010800E8BDE2BDE5BDE4BDE3BDE9BFE5BFE4BFD1
:10011800EAB9E0E8E8B9E0E0E0BFE6B9EDB9E6BF82
:10012800A0E29BD0DE0177D000E110E011232AF194
:100138000A93A0E044D0D801E2E0F0E00E948701F1
:10014800309719F4A6E6B0E002C0A8E6B0E072D095
:10015800A8ECB0E00E9466013FD020E030E0201714
:10016800310744F4DE01A20FB31FAC913FD02F5FDB
:100178003F4FF5CF01501040D9CFD4CFFFCFAA932E
:10018800E2B3EF70AE2FE881E07FEA2BE2BB82E0BA
:100198008A95F1F7929A82E08A95F1F7929882E02F
:1001A8008A95F1F782C0AA93A881E9DFE881E295F0
:1001B800E883A881E4DF81E18A95F1F776C0AA9304
:1001C800E881F0E0E05AFD4FE081A981AE0FEBDF56
:1001D8005980488022960895A2E069D0ACE0E3DF18
:1001E800A1E065D0E0E04E2E5E2E0895AA93A88186
:1001F800AA3011F0571448F0E0E0EA934394A42D94
:10020800DEDFA881AA3009F450C05394909AA881DF
:10021800CADF90984AC0BA93AA931A93A981BA815F
:10022800ED91A983BA831E2FE03019F0A12FDEDFEC
:10023800F5CF10C0BA93AA931A93E981FA8131963F
:10024800E983FA833197E4911E2FE03019F0A12F4A
:10025800CDDFF3CF188123960895AA93E1B3E06F19
:10026800E1BB8A9A889A899A92989098919878800E
:10027800E881E058E0936202E881E054E093630289
:10028800A4E1B0E00E94660117D016D015D0A0E214
:1002980076DF81E28A95F1F7A8E285DFA4E083DFC3
:1002A800A5E881DFA6E07FDF97DF219608957BDF51
:1002B800A3E0B0E00C946601A0E361DF81E28A95D7
:1002C800F1F70895109639F0A8958AEF90E0019714
:1002D800F1F71197C9F70895F195E195F040089560
:1002E8000024112490E1AA0FBB1F001C111C0E1A38
:1002F8001F0A18F40E0E1F1E01C0A1609A9599F7E7
:10030800FD01D0010895E894B7FF04C0A095B09509
:1003180011966894F7FDE0DFE3DFFD010EF4DCDF02
:100328000895AC0FBD1F05900D928A95E1F70895C9
:00000001FF
